:10165500040309041203790075006C006500690034
:10166500740061006F00140343004D0053004900EE
:1016750053002D004400410050001A033400380087
:101685004500410038003000360045003300310088
:10169500330039001C0343004D005300490053003B
:1016A5002D00440041005000200043004400430049
:1016B5001C0343004D005300490053002D00440016
:1016C500410050002000440043004900140343003A
:1016D5004D005300490053002D00440041005000C7
:1016E50012010002EF02014051C201F000010102A6
:1016F50003010600FF0901A101150026FF00750879
:101705009540090181029540090191029501090160
:10171500B102C009026B000301008032080B000210
:10172500020201040904000001020200040524006C
:10173500100105240101010424020205240600010B
:101745000705810340000209040100020A000005A3
:101755000705020240000007058202400000090457
:1017650002000203000006092100010001222100F8
:0E177500070583034000010705030340000140
:101BEB0041028400013400012C00012A0001240071
:101BFB00012900072D000000000000000225000055
:0B146C00900290EBF0A3EAF0A3E9F07F
:1014770090029312113E000000007815760078164E
:101487007600900290E0FBA3E0FAA3E0F9758203EF
:10149700758300121021FF900293EFF0900290E005
:1014A700FBA3E0FAA3E0F97582027583001210210D
:1014B700FF900294EFF0900290E0FBA3E0FAA3E024
:1014C700F9758201758300121021FF900295EFF0E4
:1014D700900290E0FBA3E0FAA3E0F9121008FF9056
:1014E7000296EFF07F681200467F071200467B40A6
:1014F7007A42790F7800900293E0FCA3E0FDA3E025
:10150700FEA3E0FF1210A0EF2430FF1200467B403D
:101517007A42790F7800900293E0FCA3E0FDA3E004
:10152700FEA3E0FF1210A0CCE8CCCDE9CDCEEACEE9
:10153700CFEBCF7BA07A86790178001210A0EF2439
:1015470030FF1200467BA07A8679017800900293DB
:10155700E0FCA3E0FDA3E0FEA3E0FF1210A0CCE8AF
:10156700CCCDE9CDCEEACECFEBCF7B107A27790071
:1015770078001210A0EF2430FF1200467B107A2764
:1015870079007800900293E0FCA3E0FDA3E0FEA3BE
:10159700E0FF1210A0CCE8CCCDE9CDCEEACECFEB60
:1015A700CF7BE87A03790078001210A0EF2430FF90
:1015B7001200467BE87A0379007800900293E0FCFA
:1015C700A3E0FDA3E0FEA3E0FF1210A0CCE8CCCD82
:1015D700E9CDCEEACECFEBCF7B647A0079007800F5
:1015E7001210A0EF2430FF1200467B647A007900C6
:1015F7007800900293E0FCA3E0FDA3E0FEA3E0FFE8
:101607001210A0CCE8CCCDE9CDCEEACECFEBCF7B84
:101617000A7A00790078001210A0EF2430FF120038
:10162700467B0A7A0079007800900293E0FCA3E0F9
:10163700FDA3E0FEA3E0FF1210A0CCE8CCCDE9CDDE
:0D164700CEEACECFEBCFEF2430FF120046ED
:011654002273
:101B7900C2EA75E20075D18053D1FB53E2BF7B0104
:101B89007A007900CEEACECFE9CF8EED8FEC75DC05
:101B9900027B017A007940CEEACECFE9CF8EEF8F72
:101BA900EE53EAF375D2127B017A007980CEEACE40
:101BB900CFE9CF8EE58FE47B017A017900CEEACEB9
:101BC900CFE9CF8EE78FE643EBCC75D41275D61AE1
:101BD90075E30043E22943D10175D8FF75E107D2C6
:021BE900EA22EE
:0300430002006652
:0D006600C0E0C0F0C083C082C0D075D008DB
:1000730020D90302078FE5D9543FFFEF12116F0612
:10008300EA0000B20200E103063B20009E2100CDFE
:100093002200F723010B300000078D75D300782B66
:1000A3007600E5D254FCFFEF4402F5D202078D201F
:1000B300DE0302078D7824A6DB78297600E5D45485
:1000C300F3FFEF4408F5D402078D75D500E5D4544A
:1000D300FCFFEF4402F5D4782C760002078D20DE76
:1000E3000302078DE5DB700302078D900284740120
:1000F300F002078D7834760075D700E5D654FCFFFF
:10010300EF4402F5D602078D90029CE5DBF09002E6
:100113009CE0FFEF64086003020601900006E0FF25
:100123007827EFF6900007E0FFEF700A7827E6FFE5
:10013300EFD3947F40047827767F90029CE4F0907D
:100143000001E0FF7828EFF6900000E0FFEF546035
:10015300FFEF12116F01650004D320052C4000004E
:10016300055C7828E6FFEF12116F049E00031E0161
:1001730003900302E40501890602F008030F090551
:10018300620A000004C7900003E0FFEF12116F0141
:10019300A20101BC0201D60302BA22000002D87BED
:1001A300FF7A1679E590028DEBF0A3EAF0A3E9F06C
:1001B30090029C7412F00205627BFF7A1779189003
:1001C300028DEBF0A3EAF0A3E9F090029C746BF0CC
:1001D300020562900002E0FFEF12116F01F80002C6
:1001E3001201022C02024603026004027A05029401
:1001F30006000002AE7BFF7A16795590028DEBF074
:10020300A3EAF0A3E9F090029C7404F00205627B78
:10021300FF7A16795990028DEBF0A3EAF0A3E9F087
:1002230090029C7412F00205627BFF7A16796B9040
:10023300028DEBF0A3EAF0A3E9F090029C7414F0B2
:100243000205627BFF7A16797F90028DEBF0A3EAB9
:10025300F0A3E9F090029C741AF00205627BFF7A26
:1002630016799990028DEBF0A3EAF0A3E9F09002DE
:100273009C741CF00205627BFF7A1679B590028D9F
:10028300EBF0A3EAF0A3E9F090029C741CF00205E2
:10029300627BFF7A1679D190028DEBF0A3EAF0A38B
:1002A300E9F090029C7414F002056290029C74FFC2
:1002B300F00205620205627BFF7A1679F790028DE0
:1002C300EBF0A3EAF0A3E9F090029C7421F07835F7
:1002D300760102056290029C74FFF002056202053A
:1002E30062900002E0FF7827EFF60205627822E6CB
:1002F300FF900000EFF07827E6FFEFC3940150036F
:1003030002056290029C7401F0020562900002E013
:10031300FF7822EFF6020562020562900000E0FF1B
:10032300EF541FFFEF6402705B900004E0FFEF12D5
:10033300116F036202037503034881035582036847
:10034300830000037BE5D254BCFFEF4402F5D202E5
:100353000562E5D454BCFFEF4402F5D402056253B1
:10036300D473020562E5D654BCFFEF4402F5D6020E
:10037300056253D67302056290029C74FFF0020576
:100383006202056290029C74FFF002056290000015
:10039300E0FFEF541FFFEF703D900003E0FF7E008E
:1003A300EF7F00FE900002E0FD7C00EE4CFEEF4D7F
:1003B300FFEF64014E701690171FE493FFEF30E5D3
:1003C3000302056290029C74FFF002056290029C96
:1003D30074FFF0020562900000E0FFEF541FFFEF8F
:1003E30064026003020495900003E0FF7E00EF7F48
:1003F30000FE900002E0FD7C00EE4CFEEF4DFFEFAF
:100403004E600302048C900005E0FF7E00EF7F0046
:10041300FE900004E0FD7C00EE4CFEEF4DFFEF8EFE
:10042300F01211950459000204730003043F008184
:10043300044C00820466008300000480E5D254BFAC
:10044300FFEF4403F5D2020562E5D454BFFFEF4446
:1004530003F5D4020562E5D4547FFFEF440CF5D4D1
:10046300020562E5D654BFFFEF4403F5D6020562E9
:10047300E5D6547FFFEF440CF5D602056290029C4B
:1004830074FFF002056202056290029C74FFF002A1
:10049300056290029C74FFF0020562900000E4F094
:1004A300900001E4F07827E6FFEFC394024009903F
:1004B300029C7402F00205627827E6FF90029CEF2B
:1004C300F002056290029C74FFF00205620205626D
:1004D300900000E0FFEF541FFFEF6401600302058B
:1004E300627828E6FFEF12116F05622004FB2105F5
:1004F30014220000052280677B007A00792D900288
:100503008DEBF0A3EAF0A3E9F090029C7407F0806E
:100513004E900002E0FFEF04FF782AEFF680409050
:10052300029C74FFF080388036900000E0FFEF54A7
:100533001FFFEF702A7828E6FFEF12116F0547209F
:1005430000000552900004E0FFEFB4071280109002
:10055300029C74FFF08008800690029C74FFF09068
:10056300029CE0FFEF700302060790029CE0FFEF9E
:1005730064FF700302060790029CE0FF7827E6FE03
:10058300EED39F400990029CE0FF7827EFF678278F
:10059300E6FFEFC3944040047F4080047827E6FFE2
:1005A30090029CEFF090029CE0FF7E0090028DE0B1
:1005B300FBA3E0FAA3E0F9EBC0E0EAC0E0E9C0E0A6
:1005C3007B017A007900C8E9C8CCEACCCDEBCDD069
:1005D300E0F9D0E0FAD0E0FB120FE27827E6FF90D3
:1005E300029CE0FEC3EF9EFF7827EFF690029CE0AB
:1005F300FF7E0090028EEE8FF012104E8006900266
:100603009C74FFF090029CE0FFEFB4FF0A78287619
:10061300FF75DCCF02078D90029CE0FFEFD394407F
:10062300500D90029CE0FF8FDD75DCC002078D75D5
:10063300DD0075DCC002078D7828E6FFEF12116F2D
:1006430006CB05065006065020000006DE7827E696
:10065300FFEFC3944040047F4080047827E6FF9077
:10066300029CEFF090029CE0FF7E0090028DE0FB85
:10067300A3E0FAA3E0F9EBC0E0EAC0E0E9C0E07B65
:10068300017A007900C8E9C8CCEACCCDEBCDD0E043
:10069300F9D0E0FAD0E0FB120FE27827E6FF9002F0
:1006A3009CE0FEC3EF9EFF7827EFF690029CE0FFED
:1006B3007E0090028EEE8FF012104E90029CE0FFAF
:1006C3008FDD63DC4002078DE5E35480FF7827E686
:1006D300FEEF4EF5E375DC0202078D75DD0075DC78
:1006E3000202078D02078D90029CE5DBF07828E675
:1006F300FFEF6420600302078A20DE0302078A906B
:10070300029EE4F090029DE4F090029DE0FFEFC3AF
:100713009404502E90029DE0FF742D2FF8E6FF9075
:10072300029DE0FE74002EF582E43400F583E0FEC2
:10073300EE6F600690029EE004F090029DE004F0EC
:1007430080C790029EE0FFEF6037AFDB7E007B0146
:100753007A007900EBC0E0EAC0E0E9C0E07B007A10
:1007630000792DC8E9C8CCEACCCDEBCDD0E0F9D0E7
:10077300E0FAD0E0FB120FE27B007A00792D12142D
:100783006C75DD0043DC0063DC80C2D930D8297589
:10079300DC0275D21075D41275D61275E300C2DA75
:1007A300C2D9C2D8782476007822760078347600CD
:1007B300782C7600782B760030DA09C2DAE5DA3065
:0707C300E205800375D8FF79
:0B07CA00D0D0D082D083D0F0D0E0323D
:101C0B004102550141020E0041020F0041020C003E
:101C1B0041020D0042025A00004202100000420233
:081C2B005600004202580000BF
:10178300900284E0FFEF700302187E7F661200462A
:10179300900258E4F0A3E4F0900256E4F0A3743FFF
:1017A300F0900256E0FEA3E0FF74002FF582E434CC
:1017B30001F583E0FF7E00900259E02FF09002587C
:1017C300E03EF0900258E0FEA3E0FFEF4E70109071
:1017D3000257E024FFF0900256E034FFF080C290FD
:1017E3000256E0FEA3E0FFEF04FF120046781976ED
:1017F30000900256E0FEA3E0FFEF2401FFEE340069
:10180300FE7819E6FD7C00C3ED9FEC9E5018781915
:10181300E6FF74002FF582E43401F583E0FF120044
:101823004678190680CB90025AE0FEA3E0FFEE3023
:10183300E7F490025AE4F0A3E4F0781976007819FB
:10184300E6FFEFC3944050257819E6FF74132FF594
:1018530082E43402F583E0FF7819E6FE74402EF546
:1018630082E43401F583EFF078190680D153D6F37F
:0B18730075D74053D6FC900284E4F0CF
:01187E002247
:1011F40078177600781876001200037F057E0012B7
:101204001C977D047F0312187F121B79D2AF75D30C
:101214000075D50075D700782C7600900255E0FF54
:10122400EF6011209405900255E4F07F647E001273
:101234001C9780E7781776007817E6FFEFC3944091
:1012440050157817E6FF74132FF582E43402F58302
:10125400E4F078170680E1121A35C29912178378E0
:1012640024E6FFEF604B7824E6FF7818A6077F6733
:101274001200467818E6FF120046781776007818B0
:10128400E6FF7817E6FEEEC39F50187817E6FF7462
:10129400802FF582E43400F583E0FF1200467817CE
:1012A4000680DB782476007824E6FFEF700353D4BD
:1012B400F3782AE6FFEF60157F681200467F01127B
:1012C4000046782AE6FF120046782A76009002103B
:1012D400E0FEA3E0FFEE30E783782CE6FFEF600347
:1012E400021260900210E0FEA3E0FFEF54FFFF78CB
:1012F40018A6077818E6FFEFC39440503F7818E625
:10130400FF7E007B017A017980C003C002C0017BAB
:10131400017A0079C0A801AC02AD03D001D002D09B
:1013240003120FE27818E6FF8FD553D4FC782C769D
:1013340001900210E4F0A3E4F00212607818E6FFD2
:10134400EF644070507818E6FF7E007B017A0179E3
:1013540080C003C002C0017B017A0079C0A801AC3F
:1013640002AD03D001D002D003120FE27818E6FFD9
:101374008FD553D4FC782C7601782CE6FFEF70F9E6
:1013840075D50053D4FC782C7601900210E4F0A3B8
:10139400E4F00212607818E6FFEFD39440500302A1
:1013A4001260781776007818E6FFEFC4131354031D
:1013B400FF7817E6FEEEC39F50557817E6FF7E4090
:1013C400EF8EF0A4FFAEF074802FF974013EFA7B27
:1013D40001C003C002C0017B017A0079C0A801AC3E
:1013E40002AD03D001D002D0037E007F40120FE291
:1013F40075D54053D4FC782C7601782CE6FFEF7039
:10140400F975D500781874C026F678170680977891
:1014140018E6FF7E00C006C0077817E6FF7E40EF9F
:101424008EF0A4FFAEF074802FF974013EFA7B01B4
:10143400C003C002C0017B017A0079C0A801AC02DC
:10144400AD03D001D002D003D007D006120FE2784A
:1014540018E6FF8FD553D4FC782C7601900210E463
:07146400F0A3E4F0021260A6
:01146B00225E
:030023000207D5FC
:1007D500C0E0C083C082C0D075D000C004C005C0D1
:1007E50006C007209803020B9C900212E599F09031
:1007F500025AE0FEA3E0FFEE20E70C900210E0FEB7
:10080500A3E0FFEE30E7067E007F0180047E007FD7
:1008150000EF4E60030209E190025AE0FEA3E0FFFB
:10082500EE20E60C900210E0FEA3E0FFEE30E606B7
:100835007E007F0180047E007F00EF4E705F900296
:1008450012E0FFEFB4661D90025AE0FEA3E0FFEE52
:100855004440FE90025AEEF0A3EFF090020C7401B2
:10086500F0020B9A900212E0FFEFB4671D900210A0
:10087500E0FEA3E0FFEE4440FE900210EEF0A3EF91
:10088500F090020D7401F0020B9A90025AE4F0A365
:10089500E4F0900210E4F0A3E4F0020B9A90025AFF
:1008A500E0FEA3E0FFEE20E603020943900210E01C
:1008B500FEA3E0FFEE5440FE7F00EFF4FFEEF4FEF2
:1008C500EF4E607A90020CE0FFEF6012900212E0AA
:1008D500FF90020EEFF090020CE4F0020B9A9002EA
:1008E50012E0FF90025AE0FCA3E0FDEC540FFC740B
:1008F500132DF58274023CF583EFF090025BE00462
:10090500F0700690025AE004F090025AE0FEA3E06F
:10091500FFEE540FFE90020EE0FD7C00EF6D7002BD
:10092500EE6C6003020B9A90025AE0FEA3E0FFEE24
:100935004480FE90025AEEF0A3EFF0020B9A90026B
:100945005AE0FEA3E0FFEFF4FFEEF4FEEE20E6032F
:10095500020B9A900210E0FEA3E0FFEE20E60302F0
:100965000B9A90020DE0FFEF6012900212E0FF90EB
:10097500020FEFF090020DE4F0020B9A900212E0E4
:10098500FF900210E0FCA3E0FDEC540FFC74802DF9
:10099500F58274013CF583EFF0900211E004F070EC
:1009A50006900210E004F0900210E0FEA3E0FFEED6
:1009B500540FFE90020FE0FD7C00EF6D7002EE6CAF
:1009C5006003020B9A900210E0FEA3E0FFEE448064
:1009D500FE900210EEF0A3EFF0020B9A90025AE09F
:1009E500FEA3E0FFEE20E703020AC2900210E0FE3C
:1009F500A3E0FFEE5480FE7F00EFF4FFEEF4FEEF80
:100A05004E7003020AC2900210E0FEA3E0FFEE2042
:100A1500E631900212E0FFEFB4671D900210E0FE90
:100A2500A3E0FFEE4440FE900210EEF0A3EFF0903D
:100A3500020D7401F0020B9A900210E4F0A3E4F0A9
:100A4500020B9A90020DE0FFEF6012900212E0FF98
:100A550090020FEFF090020DE4F0020B9A90021253
:100A6500E0FF900210E0FCA3E0FDEC540FFC748065
:100A75002DF58274013CF583EFF0900211E004F04E
:100A85007006900210E004F0900210E0FEA3E0FF73
:100A9500EE540FFE90020FE0FD7C00EF6D7002EE4C
:100AA5006C6003020B9A900210E0FEA3E0FFEE4497
:100AB50080FE900210EEF0A3EFF0020B9A90025A1E
:100AC500E0FEA3E0FFEE5480FE7F00EFF4FFEEF4BE
:100AD500FEEF4E7003020B9A900210E0FEA3E0FFBA
:100AE500EE20E703020B9A90025AE0FEA3E0FFEE28
:100AF50020E62F900212E0FFEFB4661C90025AE048
:100B0500FEA3E0FFEE4440FE90025AEEF0A3EFF0A4
:100B150090020C7401F0807D90025AE4F0A3E4F099
:100B2500807390020CE0FFEF6011900212E0FF90DD
:100B3500020EEFF090020CE4F0805A900212E0FFF2
:100B450090025AE0FCA3E0FDEC540FFC74132DF564
:100B55008274023CF583EFF090025BE004F07006CE
:100B650090025AE004F090025AE0FEA3E0FFEE5432
:100B75000FFE90020EE0FD7C00EFB50518EEB50402
:100B85001490025AE0FEA3E0FFEE4480FE90025A64
:100B9500EEF0A3EFF0C298D007D006D005D004D070
:080BA500D0D082D083D0E032F1
:1000030075A15575A1AAE5B954F8FFEF4406F5B9F2
:0400130075A10022B1
:101C340090029FEEF0A3EFF090029FE0FEA3E0FF7E
:101C4400EF4E601E05A105A105A105A105A105A1F1
:101C540005A19002A0E024FFF090029FE034FFF081
:031C640080D62205
:101C97009002A1EEF0A3EFF09002A1E0FEA3E0FF17
:101CA700EF4E60177FE87E03121C349002A2E024F7
:0C1CB700FFF09002A1E034FFF080DD227D
:041D330043C6102271
:101A3500C29FD29EC29DC2CDC2CC438780900297E1
:101A450012113E0000001E7B0A7A00790078009092
:101A55000297E0FCA3E0FDA3E0FEA3E0FF1210A0C7
:101A6500AC00AD01AE02AF0390029BEFF090029780
:101A7500E0FCA3E0FDA3E0FEA3E0FF7B0A7A00798A
:101A85000078001210A090029712113290029BE08C
:101A9500FFEFC394054028900297E0FCA3E0FDA367
:101AA500E0FEA3E0FF7B017A0079007800EF2BFFD1
:101AB500EE3AFEED39FDEC38FC900297121132E555
:101AC50089540FFFEF4420F58943C9A0900297E0A0
:101AD500FCA3E0FDA3E0FEA3E0FFEFF404F58DD247
:071AE5008ED299D29CD2AC15
:011AEC0022D7
:080058003098FDC298AF992217
:100046009002A7EFF09002A7E0FF8F993099FDC2CA
:020056009922ED
:0A001700C2C7D2C5D2C475C2F322DD
:081D2B0030C0FDC2C0AFC122AF
:101D0C009002A8EFF09002A8E0FF8FC130C1FDD285
:021D1C00C122E2
:101CEA009002A9EFF075A15575A1AA9002A9E0FF8B
:101CFA00EF600543B101800353B1FE75A10075FF82
:021D0A000022B5
:0D1D1E009002AAEFF09002AAE0FF8FFF22D2
:100026004750494F5F5354415455533A2025303277
:03003600780A0045
:10187F009002A3EFF09002A4EDF09002A3E0FFEF2F
:10188F0012116F18A20018D301190102192F0300AA
:10189F000019599002A4E0FF7401C8EFC808800234
:1018AF00C333D8FCFFEFF4FFEF52929002A4E0FF96
:1018BF007401C8EFC8088002C333D8FCFFEFF4FFF0
:1018CF00EF5293229002A4E0FF7401C8EFC8088082
:1018DF0002C333D8FCFFEFF4FFEF52929002A4E063
:1018EF00FF7401C8EFC8088002C333D8FCFFEF4272
:1018FF0093229002A4E0FF7401C8EFC8088002C3CE
:10190F0033D8FCFFEF42929002A4E0FF7401C8EFBE
:10191F00C8088002C333D8FCFFEFF4FFEF529322C5
:10192F009002A4E0FF7401C8EFC8088002C333D847
:10193F00FCFFEF42929002A4E0FF7401C8EFC808C9
:0B194F008002C333D8FCFFEF4293225C
:10195A009002A5EFF09002A6EDF09002A5E0FFEF4D
:10196A0012116F197D0019AE0119DC021A0A03005F
:10197A00001A349002A6E0FF7401C8EFC80880027A
:10198A00C333D8FCFFEFF4FFEF52969002A6E0FFB4
:10199A007401C8EFC8088002C333D8FCFFEFF4FF14
:1019AA00EF5297229002A6E0FF7401C8EFC80880A0
:1019BA0002C333D8FCFFEFF4FFEF52969002A6E081
:1019CA00FF7401C8EFC8088002C333D8FCFFEF4296
:1019DA0097229002A6E0FF7401C8EFC8088002C3EC
:1019EA0033D8FCFFEF42969002A6E0FF7401C8EFDD
:1019FA00C8088002C333D8FCFFEFF4FFEF529722E6
:101A0A009002A6E0FF7401C8EFC8088002C333D869
:101A1A00FCFFEF42969002A6E0FF7401C8EFC808E7
:0B1A2A008002C333D8FCFFEF4297227C
:0900390053C77F43C73CD2EE22FD
:03006300021C6715
:101C6700C0E0C0F0C083C082C0D075D0087BFF7AC7
:101C7700007926E5C65440FF7E0090025FEEF0A390
:101C8700EFF0120C18D0D0D082D083D0F0D0E03251
:03000000021AEDF4
:0C1AED00787FE4F6D8FD758135021B34CB
:100F1200E709F608DFFA8046E709F208DFFA803EC1
:100F220088828C83E709F0A3DFFA8032E309F608AE
:100F3200DFFA8078E309F208DFFA807088828C8316
:100F4200E309F0A3DFFA806489828A83E0A3F608CA
:100F5200DFFA805889828A83E0A3F208DFFA804CA4
:100F620080D280FA80C680D4806980F2803380107B
:100F720080A680EA809A80A880DA80E280CA8033E4
:100F820089828A83ECFAE493A3C8C582C8CCC5835C
:100F9200CCF0A3C8C582C8CCC583CCDFE9DEE7802C
:100FA2000D89828A83E493A3F608DFF9ECFAA9F0AB
:100FB200EDFB2289828A83ECFAE0A3C8C582C8CC01
:100FC200C583CCF0A3C8C582C8CCC583CCDFEADE1A
:100FD200E880DB89828A83E493A3F208DFF980CC7C
:100FE20088F0EF60010E4E60C388F0ED2402B40475
:100FF2000050B9F582EB2402B4040050AF2323451C
:061002008223900F6273CF
:10100800BB010689828A83E0225002E722BBFE02E6
:09101800E32289828A83E4932219
:10102100BB010CE58229F582E5833AF583E0225084
:1010310006E92582F8E622BBFE06E92582F8E222CE
:0D104100E58229F582E5833AF583E49322E8
:10104E00C5F0F8A3E028F0C5F0F8E582158270022D
:06105E001583E038F022CA
:1010640075F008758200EF2FFFEE33FECD33CDCC43
:1010740033CCC58233C5829BED9AEC99E5829840C6
:101084000CF582EE9BFEED9AFDEC99FC0FD5F0D6A3
:10109400E4CEFBE4CDFAE4CCF9A88222B800C1B9CD
:1010A4000059BA002DEC8BF084CFCECDFCE5F0CB0B
:1010B400F97818EF2FFFEE33FEED33FDEC33FCEB44
:1010C40033FB10D703994004EB99FB0FD8E5E4F9FF
:1010D400FA227818EF2FFFEE33FEED33FDEC33FCEC
:1010E400C933C910D7059BE99A4007EC9BFCE99AE0
:1010F400F90FD8E0E4C9FAE4CCFB2275F010EF2F25
:10110400FFEE33FEED33FDCC33CCC833C810D70724
:101114009BEC9AE899400AED9BFDEC9AFCE899F85F
:0E1124000FD5F0DAE4CDFBE4CCFAE4C8F922F2
:0C113200ECF0A3EDF0A3EEF0A3EFF02230
:10113E00A8828583F0D083D08212115512115512D8
:10114E001155121155E473E493A3C583C5F0C583FD
:10115E00C8C582C8F0A3C583C5F0C583C8C582C8FB
:01116E00225E
:10116F00D083D082F8E4937012740193700DA3A30F
:10117F0093F8740193F5828883E473740293686023
:06118F00EFA3A3A380DF23
:10119500D083D082F8E4937012740193700DA3A3E9
:1011A50093F8740193F5828883E473740293B5F020
:0D11B500067403936860E9A3A3A3A380D888
:100BAD00E510245FF582E43402F583E00510229010
:100BBD00025C30070390025FE475F0011211D4025C
:100BCD0010082000E97F2ED2008018EF540F2490DA
:100BDD00D43440D4FF30040BEF24BFB41A005003BB
:100BED002461FFE511600215110514E5147002056D
:100BFD001330070E90025CE475F0011211D4EF0270
:100C0D0011C2021CC37403D2078003E4C207F5109E
:100C1D0090025C1211EBE4F511F513F514E511607A
:100C2D00077F20120BF080F57512FFC201C200C2C2
:100C3D0002C203C205C206C208120BBCFF700D3002
:100C4D0007057F00120C01AF14AE1322B4255FC24D
:100C5D00D5C204120BBCFF24D0B40A00501A75F093
:100C6D000A781130D50508B6FF0106C6A426F62070
:100C7D00D5047002D20380D924CFB41A00EF5004EA
:100C8D00C2E5D204020E02D20180C6D20080C0D2CB
:100C9D000280BCD2D580BAD20580B47F20120BF071
:100CAD002002077401B5110040F1120BADFF120BBC
:100CBD00F0020C2AD208D2068095120BADFB120B56
:100CCD00ADFA120BADF94A4B700679D37A0E7BFF54
:100CDD0020022EE511602A7E008E8275830012108F
:100CED002160060EEE651270F0C2D5EBC0E0EAC0D1
:100CFD00E0E9C0E0EE120E49D0E0F9D0E0FAD0E024
:100D0D00FB121008FF60AAEBC0E0EAC0E0E9C0E00A
:100D1D00120BF0D0E02401F9D0E03400FAD0E0FB62
:100D2D00E5120460DCD512D980877BFF7A0E7945F8
:100D3D00D202809C791080027908C206C208800810
:100D4D00D2D5790A8004790AC2D5E512047002F56C
:100D5D0012E4FAFDFEFF120BADFC7B08200113120D
:100D6D000BADFD7B1030000A120BADFE120BADFF6B
:100D7D007B20EC3382D592D55013C3E43000069F0F
:100D8D00FFE49EFEE42001039DFDE49CFCE4CBF812
:100D9D00C201EC700CCFCECDCCE824F8F870F38006
:100DAD0017C3EF33FFEE33FEED33FDEC33FCEB33C6
:100DBD00FB994002FB0FD8E9EB300105F8D0E0C4F8
:100DCD0048B201C0E00AEC4D4E4F78207B0070C256
:100DDD00EAB5120040BCC0E0120E4BD0F0D0E020BE
:100DED000104C4C0E0C4B201C0F0120BD9D0F0D5DB
:100DFD00F0EB020C2A12116F0CC7530D41580C98D1
:100E0D004C0C94420D454F0D4D440D4D490CAD43C9
:080E1D000D53550D37460D374A
:100E2500450D37470EF3500C9C2D0CA02E0CC32BF3
:100E35000CA4230CC1200EDC2A0C5C4800000CBB62
:100E45003F3F3F00790AA2D5200314300509B910A8
:100E5500020404B9080104A2D520060250010420A9
:100E650002689202B511005034C0E07F20300319AA
:100E75007F30A20272067205500F120EA2C202C284
:100E850006C205C2087F30800F300503E9C0E012B5
:100E95000BF0300503D0E0F9D0E0B511CC300517E3
:100EA5007F30B9100C120BF07F583004077F788023
:100EB50003B90803120BF03002057F2D020BF07FFA
:100EC500202008F87F2B2006F322920280CF286E7F
:100ED500756C6C2900D201120BAD3001F8C2017896
:100EE5001130D50108F6020C5C2D50434958120B00
:100EF500AD2403B405004001E4900EEE93120BE11E
:0D0F0500743A120BE1D203751104020D4184
:101AF9000211F4E493A3F8E493A34003F68001F2FE
:101B090008DFF48029E493A3F85407240CC8C333ED
:101B1900C4540F4420C8834004F456800146F6DFBC
:101B2900E4800B0102040810204080901BEBE47E46
:101B3900019360BCA3FF543F30E509541FFEE493B1
:101B4900A360010ECF54C025E060A840B8E493A378
:101B5900FAE493A3F8E493A3C8C582C8CAC583CAA3
:101B6900F0A3C8C582C8CAC583CADFE9DEE780BE5B
:011C330000B0
:1011C200BB010689828A83F0225002F722BBFE010C
:0211D200F32206
:1011D400F8E0FBA3A3E0F925F0F0E58215827002A4
:0711E4001583E0FA38F02248
:0911EB00EBF0A3EAF0A3E9F02205
:101CC300EFB40A07740D121CCE740A309811A89948
:101CD300B8130CC2983098FDA899C298B811F63081
:071CE30099FDC299F5992259
:00000001FF
